{
  "note": "Auto-synced by sync-factory-artifacts.js",
  "_format": "hh-sol-artifact-1",
  "contractName": "NewMatrix",
  "sourceName": "contracts/NewMatrix.sol",
  "abi": [
    {
      "inputs": [
        {
          "internalType": "address",
          "name": "tokenAddress",
          "type": "address"
        },
        {
          "internalType": "uint256",
          "name": "entryFee",
          "type": "uint256"
        },
        {
          "internalType": "uint8",
          "name": "vpSize",
          "type": "uint8"
        }
      ],
      "stateMutability": "nonpayable",
      "type": "constructor"
    },
    {
      "inputs": [],
      "name": "ReentrancyGuardReentrantCall",
      "type": "error"
    },
    {
      "anonymous": false,
      "inputs": [
        {
          "indexed": true,
          "internalType": "address",
          "name": "triggerer",
          "type": "address"
        },
        {
          "indexed": true,
          "internalType": "uint256",
          "name": "paidEntryId",
          "type": "uint256"
        },
        {
          "indexed": false,
          "internalType": "uint256",
          "name": "discountAmount",
          "type": "uint256"
        }
      ],
      "name": "AutoPayTriggered",
      "type": "event"
    },
    {
      "anonymous": false,
      "inputs": [
        {
          "indexed": false,
          "internalType": "uint256",
          "name": "processedSoFar",
          "type": "uint256"
        },
        {
          "indexed": false,
          "internalType": "uint256",
          "name": "total",
          "type": "uint256"
        },
        {
          "indexed": false,
          "internalType": "uint256",
          "name": "remaining",
          "type": "uint256"
        },
        {
          "indexed": false,
          "internalType": "uint256",
          "name": "batchSize",
          "type": "uint256"
        }
      ],
      "name": "EOLBatchProgress",
      "type": "event"
    },
    {
      "anonymous": false,
      "inputs": [
        {
          "indexed": true,
          "internalType": "address",
          "name": "user",
          "type": "address"
        },
        {
          "indexed": false,
          "internalType": "uint256",
          "name": "amount",
          "type": "uint256"
        },
        {
          "indexed": false,
          "internalType": "uint256",
          "name": "tokenId",
          "type": "uint256"
        },
        {
          "indexed": false,
          "internalType": "uint256",
          "name": "vpId",
          "type": "uint256"
        }
      ],
      "name": "EOLPaid",
      "type": "event"
    },
    {
      "anonymous": false,
      "inputs": [
        {
          "indexed": false,
          "internalType": "uint256",
          "name": "newVPId",
          "type": "uint256"
        },
        {
          "indexed": false,
          "internalType": "uint256",
          "name": "cycleNumber",
          "type": "uint256"
        }
      ],
      "name": "EOLResetEvent",
      "type": "event"
    },
    {
      "anonymous": false,
      "inputs": [
        {
          "indexed": true,
          "internalType": "address",
          "name": "caller",
          "type": "address"
        },
        {
          "indexed": false,
          "internalType": "uint256",
          "name": "timestamp",
          "type": "uint256"
        },
        {
          "indexed": false,
          "internalType": "uint256",
          "name": "vaultSnapshot",
          "type": "uint256"
        },
        {
          "indexed": false,
          "internalType": "uint256",
          "name": "cycleNumber",
          "type": "uint256"
        }
      ],
      "name": "EOLTriggered",
      "type": "event"
    },
    {
      "anonymous": false,
      "inputs": [
        {
          "indexed": true,
          "internalType": "uint256",
          "name": "vpId",
          "type": "uint256"
        }
      ],
      "name": "Full",
      "type": "event"
    },
    {
      "anonymous": false,
      "inputs": [
        {
          "indexed": true,
          "internalType": "uint256",
          "name": "vpId",
          "type": "uint256"
        },
        {
          "indexed": true,
          "internalType": "address",
          "name": "user",
          "type": "address"
        },
        {
          "indexed": false,
          "internalType": "uint256",
          "name": "position",
          "type": "uint256"
        },
        {
          "indexed": false,
          "internalType": "uint256",
          "name": "tokenId",
          "type": "uint256"
        }
      ],
      "name": "Joined",
      "type": "event"
    },
    {
      "anonymous": false,
      "inputs": [
        {
          "indexed": true,
          "internalType": "uint256",
          "name": "vpId",
          "type": "uint256"
        },
        {
          "indexed": true,
          "internalType": "address",
          "name": "user",
          "type": "address"
        },
        {
          "indexed": false,
          "internalType": "uint256",
          "name": "amount",
          "type": "uint256"
        }
      ],
      "name": "Paid",
      "type": "event"
    },
    {
      "inputs": [],
      "name": "ENTRY_FEE",
      "outputs": [
        {
          "internalType": "uint256",
          "name": "",
          "type": "uint256"
        }
      ],
      "stateMutability": "view",
      "type": "function"
    },
    {
      "inputs": [],
      "name": "EOLActive",
      "outputs": [
        {
          "internalType": "bool",
          "name": "",
          "type": "bool"
        }
      ],
      "stateMutability": "view",
      "type": "function"
    },
    {
      "inputs": [],
      "name": "EOLBatchSize",
      "outputs": [
        {
          "internalType": "uint256",
          "name": "",
          "type": "uint256"
        }
      ],
      "stateMutability": "view",
      "type": "function"
    },
    {
      "inputs": [],
      "name": "EOLCycleCount",
      "outputs": [
        {
          "internalType": "uint256",
          "name": "",
          "type": "uint256"
        }
      ],
      "stateMutability": "view",
      "type": "function"
    },
    {
      "inputs": [],
      "name": "EOLOpenEntriesSnapshot",
      "outputs": [
        {
          "internalType": "uint256",
          "name": "",
          "type": "uint256"
        }
      ],
      "stateMutability": "view",
      "type": "function"
    },
    {
      "inputs": [],
      "name": "EOLProcessedCount",
      "outputs": [
        {
          "internalType": "uint256",
          "name": "",
          "type": "uint256"
        }
      ],
      "stateMutability": "view",
      "type": "function"
    },
    {
      "inputs": [],
      "name": "EOLProcessingComplete",
      "outputs": [
        {
          "internalType": "bool",
          "name": "",
          "type": "bool"
        }
      ],
      "stateMutability": "view",
      "type": "function"
    },
    {
      "inputs": [],
      "name": "EOLRewardPaid",
      "outputs": [
        {
          "internalType": "uint256",
          "name": "",
          "type": "uint256"
        }
      ],
      "stateMutability": "view",
      "type": "function"
    },
    {
      "inputs": [],
      "name": "EOLRewardTotal",
      "outputs": [
        {
          "internalType": "uint256",
          "name": "",
          "type": "uint256"
        }
      ],
      "stateMutability": "view",
      "type": "function"
    },
    {
      "inputs": [],
      "name": "EOLTimestamp",
      "outputs": [
        {
          "internalType": "uint256",
          "name": "",
          "type": "uint256"
        }
      ],
      "stateMutability": "view",
      "type": "function"
    },
    {
      "inputs": [
        {
          "internalType": "uint256",
          "name": "",
          "type": "uint256"
        }
      ],
      "name": "EOLTriggerAtEntryId",
      "outputs": [
        {
          "internalType": "uint256",
          "name": "",
          "type": "uint256"
        }
      ],
      "stateMutability": "view",
      "type": "function"
    },
    {
      "inputs": [],
      "name": "EOLTriggerBonus",
      "outputs": [
        {
          "internalType": "uint256",
          "name": "",
          "type": "uint256"
        }
      ],
      "stateMutability": "view",
      "type": "function"
    },
    {
      "inputs": [],
      "name": "EOLVaultSnapshot",
      "outputs": [
        {
          "internalType": "uint256",
          "name": "",
          "type": "uint256"
        }
      ],
      "stateMutability": "view",
      "type": "function"
    },
    {
      "inputs": [],
      "name": "JOIN",
      "outputs": [],
      "stateMutability": "nonpayable",
      "type": "function"
    },
    {
      "inputs": [],
      "name": "LastPaidVP",
      "outputs": [
        {
          "internalType": "uint256",
          "name": "",
          "type": "uint256"
        }
      ],
      "stateMutability": "view",
      "type": "function"
    },
    {
      "inputs": [],
      "name": "MY_STATUS",
      "outputs": [
        {
          "internalType": "bool",
          "name": "canEnter",
          "type": "bool"
        },
        {
          "internalType": "bool",
          "name": "hasRewards",
          "type": "bool"
        },
        {
          "internalType": "uint256",
          "name": "totalAutoPayable",
          "type": "uint256"
        },
        {
          "internalType": "uint256",
          "name": "activeEntries",
          "type": "uint256"
        },
        {
          "internalType": "uint256",
          "name": "nextActionTime",
          "type": "uint256"
        },
        {
          "internalType": "string",
          "name": "statusMessage",
          "type": "string"
        },
        {
          "internalType": "uint256",
          "name": "systemColor",
          "type": "uint256"
        }
      ],
      "stateMutability": "view",
      "type": "function"
    },
    {
      "inputs": [],
      "name": "PAYOUT_AMOUNT",
      "outputs": [
        {
          "internalType": "uint256",
          "name": "",
          "type": "uint256"
        }
      ],
      "stateMutability": "view",
      "type": "function"
    },
    {
      "inputs": [],
      "name": "RESEARCH_ADDRESS",
      "outputs": [
        {
          "internalType": "address",
          "name": "",
          "type": "address"
        }
      ],
      "stateMutability": "view",
      "type": "function"
    },
    {
      "inputs": [],
      "name": "SMALL_REMAINDER_THRESHOLD",
      "outputs": [
        {
          "internalType": "uint256",
          "name": "",
          "type": "uint256"
        }
      ],
      "stateMutability": "view",
      "type": "function"
    },
    {
      "inputs": [],
      "name": "TOKEN",
      "outputs": [
        {
          "internalType": "address",
          "name": "",
          "type": "address"
        }
      ],
      "stateMutability": "view",
      "type": "function"
    },
    {
      "inputs": [
        {
          "internalType": "uint256",
          "name": "entryId",
          "type": "uint256"
        }
      ],
      "name": "canAutoPay",
      "outputs": [
        {
          "internalType": "bool",
          "name": "",
          "type": "bool"
        }
      ],
      "stateMutability": "view",
      "type": "function"
    },
    {
      "inputs": [],
      "name": "canContinueEOLProcessing",
      "outputs": [
        {
          "internalType": "bool",
          "name": "",
          "type": "bool"
        }
      ],
      "stateMutability": "view",
      "type": "function"
    },
    {
      "inputs": [],
      "name": "canJoinVP",
      "outputs": [
        {
          "internalType": "bool",
          "name": "",
          "type": "bool"
        }
      ],
      "stateMutability": "pure",
      "type": "function"
    },
    {
      "inputs": [],
      "name": "canTriggerEOL",
      "outputs": [
        {
          "internalType": "bool",
          "name": "",
          "type": "bool"
        }
      ],
      "stateMutability": "view",
      "type": "function"
    },
    {
      "inputs": [],
      "name": "continueEOLProcessing",
      "outputs": [],
      "stateMutability": "nonpayable",
      "type": "function"
    },
    {
      "inputs": [],
      "name": "entryFee",
      "outputs": [
        {
          "internalType": "uint256",
          "name": "",
          "type": "uint256"
        }
      ],
      "stateMutability": "view",
      "type": "function"
    },
    {
      "inputs": [
        {
          "internalType": "uint256",
          "name": "",
          "type": "uint256"
        }
      ],
      "name": "entryIdPaid",
      "outputs": [
        {
          "internalType": "bool",
          "name": "",
          "type": "bool"
        }
      ],
      "stateMutability": "view",
      "type": "function"
    },
    {
      "inputs": [
        {
          "internalType": "uint256",
          "name": "tokenId",
          "type": "uint256"
        }
      ],
      "name": "getActualEntryFee",
      "outputs": [
        {
          "internalType": "uint256",
          "name": "",
          "type": "uint256"
        }
      ],
      "stateMutability": "view",
      "type": "function"
    },
    {
      "inputs": [],
      "name": "getCurrentEOLCycle",
      "outputs": [
        {
          "internalType": "uint256",
          "name": "",
          "type": "uint256"
        }
      ],
      "stateMutability": "view",
      "type": "function"
    },
    {
      "inputs": [],
      "name": "getCurrentVaultBalance",
      "outputs": [
        {
          "internalType": "uint256",
          "name": "",
          "type": "uint256"
        }
      ],
      "stateMutability": "view",
      "type": "function"
    },
    {
      "inputs": [
        {
          "internalType": "uint256",
          "name": "tokenId",
          "type": "uint256"
        }
      ],
      "name": "getDiscountAmount",
      "outputs": [
        {
          "internalType": "uint256",
          "name": "",
          "type": "uint256"
        }
      ],
      "stateMutability": "view",
      "type": "function"
    },
    {
      "inputs": [],
      "name": "getEOLAvailable",
      "outputs": [
        {
          "internalType": "uint256",
          "name": "",
          "type": "uint256"
        }
      ],
      "stateMutability": "view",
      "type": "function"
    },
    {
      "inputs": [],
      "name": "getEOLBatchSize",
      "outputs": [
        {
          "internalType": "uint256",
          "name": "",
          "type": "uint256"
        }
      ],
      "stateMutability": "view",
      "type": "function"
    },
    {
      "inputs": [],
      "name": "getEOLProcessingStatus",
      "outputs": [
        {
          "internalType": "bool",
          "name": "active",
          "type": "bool"
        },
        {
          "internalType": "bool",
          "name": "complete",
          "type": "bool"
        },
        {
          "internalType": "uint256",
          "name": "processed",
          "type": "uint256"
        },
        {
          "internalType": "uint256",
          "name": "total",
          "type": "uint256"
        },
        {
          "internalType": "uint256",
          "name": "remainingBatches",
          "type": "uint256"
        }
      ],
      "stateMutability": "view",
      "type": "function"
    },
    {
      "inputs": [],
      "name": "getEOLTriggerTime",
      "outputs": [
        {
          "internalType": "uint256",
          "name": "",
          "type": "uint256"
        }
      ],
      "stateMutability": "view",
      "type": "function"
    },
    {
      "inputs": [],
      "name": "getMinEntriesForEOL",
      "outputs": [
        {
          "internalType": "uint256",
          "name": "",
          "type": "uint256"
        }
      ],
      "stateMutability": "view",
      "type": "function"
    },
    {
      "inputs": [
        {
          "internalType": "address",
          "name": "user",
          "type": "address"
        }
      ],
      "name": "getMyEntries",
      "outputs": [
        {
          "internalType": "uint256[]",
          "name": "",
          "type": "uint256[]"
        }
      ],
      "stateMutability": "view",
      "type": "function"
    },
    {
      "inputs": [
        {
          "internalType": "address",
          "name": "user",
          "type": "address"
        }
      ],
      "name": "getMyEntriesInOpenVPs",
      "outputs": [
        {
          "internalType": "uint256",
          "name": "",
          "type": "uint256"
        }
      ],
      "stateMutability": "view",
      "type": "function"
    },
    {
      "inputs": [
        {
          "internalType": "address",
          "name": "user",
          "type": "address"
        },
        {
          "internalType": "uint256",
          "name": "startTokenId",
          "type": "uint256"
        },
        {
          "internalType": "uint256",
          "name": "maxResults",
          "type": "uint256"
        }
      ],
      "name": "getMyEntriesPaginated",
      "outputs": [
        {
          "internalType": "uint256[]",
          "name": "",
          "type": "uint256[]"
        }
      ],
      "stateMutability": "view",
      "type": "function"
    },
    {
      "inputs": [],
      "name": "getReceiptContract",
      "outputs": [
        {
          "internalType": "address",
          "name": "",
          "type": "address"
        }
      ],
      "stateMutability": "view",
      "type": "function"
    },
    {
      "inputs": [],
      "name": "getSystemConfiguration",
      "outputs": [
        {
          "components": [
            {
              "internalType": "uint256",
              "name": "EOL_TRIGGER_REWARD",
              "type": "uint256"
            },
            {
              "internalType": "uint256",
              "name": "EOL_TRIGGER_DELAY",
              "type": "uint256"
            },
            {
              "internalType": "uint256",
              "name": "MIN_ENTRIES_FOR_EOL",
              "type": "uint256"
            },
            {
              "internalType": "uint256",
              "name": "PAYOUT_MULTIPLIER",
              "type": "uint256"
            },
            {
              "internalType": "uint256",
              "name": "VP_SIZE",
              "type": "uint256"
            },
            {
              "internalType": "uint256",
              "name": "FULL_VP_SIZE",
              "type": "uint256"
            },
            {
              "internalType": "uint256",
              "name": "VAULT_RESERVE",
              "type": "uint256"
            }
          ],
          "internalType": "struct Vault.VaultParams",
          "name": "",
          "type": "tuple"
        }
      ],
      "stateMutability": "view",
      "type": "function"
    },
    {
      "inputs": [],
      "name": "getTimeUntilEOLAvailable",
      "outputs": [
        {
          "internalType": "uint256",
          "name": "",
          "type": "uint256"
        }
      ],
      "stateMutability": "view",
      "type": "function"
    },
    {
      "inputs": [
        {
          "internalType": "uint256",
          "name": "tokenId",
          "type": "uint256"
        }
      ],
      "name": "getTokenOwner",
      "outputs": [
        {
          "internalType": "address",
          "name": "",
          "type": "address"
        }
      ],
      "stateMutability": "view",
      "type": "function"
    },
    {
      "inputs": [],
      "name": "getTotalEntriesMade",
      "outputs": [
        {
          "internalType": "uint256",
          "name": "",
          "type": "uint256"
        }
      ],
      "stateMutability": "view",
      "type": "function"
    },
    {
      "inputs": [],
      "name": "getUnpaidEntryCount",
      "outputs": [
        {
          "internalType": "uint256",
          "name": "",
          "type": "uint256"
        }
      ],
      "stateMutability": "view",
      "type": "function"
    },
    {
      "inputs": [
        {
          "internalType": "uint256",
          "name": "tokenId",
          "type": "uint256"
        }
      ],
      "name": "getsAutoPayDiscount",
      "outputs": [
        {
          "internalType": "bool",
          "name": "",
          "type": "bool"
        }
      ],
      "stateMutability": "view",
      "type": "function"
    },
    {
      "inputs": [],
      "name": "isEOLActive",
      "outputs": [
        {
          "internalType": "bool",
          "name": "",
          "type": "bool"
        }
      ],
      "stateMutability": "view",
      "type": "function"
    },
    {
      "inputs": [
        {
          "internalType": "uint256",
          "name": "entryId",
          "type": "uint256"
        }
      ],
      "name": "isPaid",
      "outputs": [
        {
          "internalType": "bool",
          "name": "",
          "type": "bool"
        }
      ],
      "stateMutability": "view",
      "type": "function"
    },
    {
      "inputs": [
        {
          "internalType": "uint256",
          "name": "tokenId",
          "type": "uint256"
        }
      ],
      "name": "isTokenAutoPaid",
      "outputs": [
        {
          "internalType": "bool",
          "name": "",
          "type": "bool"
        }
      ],
      "stateMutability": "view",
      "type": "function"
    },
    {
      "inputs": [],
      "name": "lastEntryTimestamp",
      "outputs": [
        {
          "internalType": "uint256",
          "name": "",
          "type": "uint256"
        }
      ],
      "stateMutability": "view",
      "type": "function"
    },
    {
      "inputs": [],
      "name": "nextTokenId",
      "outputs": [
        {
          "internalType": "uint256",
          "name": "",
          "type": "uint256"
        }
      ],
      "stateMutability": "view",
      "type": "function"
    },
    {
      "inputs": [],
      "name": "params",
      "outputs": [
        {
          "internalType": "uint256",
          "name": "EOL_TRIGGER_REWARD",
          "type": "uint256"
        },
        {
          "internalType": "uint256",
          "name": "EOL_TRIGGER_DELAY",
          "type": "uint256"
        },
        {
          "internalType": "uint256",
          "name": "MIN_ENTRIES_FOR_EOL",
          "type": "uint256"
        },
        {
          "internalType": "uint256",
          "name": "PAYOUT_MULTIPLIER",
          "type": "uint256"
        },
        {
          "internalType": "uint256",
          "name": "VP_SIZE",
          "type": "uint256"
        },
        {
          "internalType": "uint256",
          "name": "FULL_VP_SIZE",
          "type": "uint256"
        },
        {
          "internalType": "uint256",
          "name": "VAULT_RESERVE",
          "type": "uint256"
        }
      ],
      "stateMutability": "view",
      "type": "function"
    },
    {
      "inputs": [],
      "name": "receiptToken",
      "outputs": [
        {
          "internalType": "contract ENTRY_Receipt",
          "name": "",
          "type": "address"
        }
      ],
      "stateMutability": "view",
      "type": "function"
    },
    {
      "inputs": [
        {
          "internalType": "uint256",
          "name": "",
          "type": "uint256"
        }
      ],
      "name": "tokenOwner",
      "outputs": [
        {
          "internalType": "address",
          "name": "",
          "type": "address"
        }
      ],
      "stateMutability": "view",
      "type": "function"
    },
    {
      "inputs": [],
      "name": "triggerEOL",
      "outputs": [],
      "stateMutability": "nonpayable",
      "type": "function"
    },
    {
      "inputs": [],
      "name": "unpaidOpenEntries",
      "outputs": [
        {
          "internalType": "uint256",
          "name": "",
          "type": "uint256"
        }
      ],
      "stateMutability": "view",
      "type": "function"
    },
    {
      "inputs": [
        {
          "internalType": "uint256",
          "name": "",
          "type": "uint256"
        }
      ],
      "name": "vpResearchPaid",
      "outputs": [
        {
          "internalType": "bool",
          "name": "",
          "type": "bool"
        }
      ],
      "stateMutability": "view",
      "type": "function"
    }
  ],
  "bytecode": "0x6101006040527324e9f5339551f94b54109b6ac7d71426c89ba21160c0526001600855610171600f5560006018553480156200003a57600080fd5b5060405162004051380380620040518339810160408190526200005d9162000257565b60016000556001600160a01b03831660805260a0829052828260ff83166003819003620000f5576040805160e0810182526101718082526230a5c06020830181905260049383018490526115b360608401819052600360808501819052600d60a0860181905261192d60c0909601869052600194909455600292909255848255909355600592909255600691909155600755620001be565b8060040362000172576040805160e0810182526115b38082526230a5c060208301819052600a93830184905261d8fe60608401819052600460808501819052605560a08601819052616b3a60c0909601869052600194909455600292909255600394909455928355600592909255600691909155600755620001be565b60405162461bcd60e51b815260206004820152601f60248201527f496e76616c69642056502073697a653a206d7573742062652033206f72203400604482015260640160405180910390fd5b604051620001cc9062000249565b60208082526025908201527f68747470733a2f2f7661756c742e636f6d2f6d657461646174612f544f4b454e604082015264173539b7b760d91b6060820152608001604051809103906000f0801580156200022b573d6000803e3d6000fd5b506001600160a01b031660e05250504260095550620002af92505050565b6113e38062002c6e83390190565b6000806000606084860312156200026d57600080fd5b83516001600160a01b03811681146200028557600080fd5b60208501516040860151919450925060ff81168114620002a457600080fd5b809150509250925092565b60805160a05160c05160e0516128dd620003916000396000818161059c015281816107a10152818161094e01528181610a810152818161120401528181611424015281816115470152818161165f0152818161216a015261229501526000818161062e0152818161181c01526118ec0152600081816103bb01528181610800015281816108560152818161089501528181610d8c0152818161186d0152818161189f01528181611a110152611c710152600081816105e701528181610b7a01528181610c2a0152818161132e015281816121ff015261249201526128dd6000f3fe608060405234801561001057600080fd5b50600436106103835760003560e01c806382bfefc8116101de578063c74081171161010f578063e48b91fa116100ad578063f5bcaeb91161007c578063f5bcaeb9146107f5578063f6d361cc146107fe578063f937604514610824578063fc87d9751461084757600080fd5b8063e48b91fa1461078c578063e689ce8b14610794578063ec78e8321461079c578063edc3f8ef146107c357600080fd5b8063d38caa9d116100e9578063d38caa9d14610760578063da7a8db714610768578063dc4ab11114610770578063e4343d491461077957600080fd5b8063c7408117146106df578063cd392a83146106e6578063cff0ab961461070957600080fd5b8063a53ca6961161017c578063b8e2b5aa11610156578063b8e2b5aa146106b3578063b8f09c7e146106bc578063bc9f7935146106c4578063c3fddfdd146106cc57600080fd5b8063a53ca69614610675578063a5cd761f14610682578063a68e3acd146106ab57600080fd5b806394807cfc116101b857806394807cfc1461065057806398caaeb514610658578063a0366b0d14610663578063a1e1cf491461066c57600080fd5b806382bfefc8146105e25780638386333e1461060957806384706d3e1461062957600080fd5b80633f69dcca116102b85780636308a6591161025657806372058ca31161023057806372058ca3146105c057806375794a3c146105c95780637a57ab03146105d25780637f968148146105da57600080fd5b80636308a6591461057e578063672d8e12146105875780636f427e8d1461059a57600080fd5b80634c994822116102925780634c994822146104d95780634fc0812c146104f457806352963788146104fd57806354de1b8e1461055b57600080fd5b80633f69dcca146104b657806340cbb075146104be57806343e8db1b146104c657600080fd5b8063234dcfd81161032557806335dc69a6116102ff57806335dc69a6146104835780633874a7d2146104965780633961c9d1146104a05780633c5efe47146104a957600080fd5b8063234dcfd81461044e578063251c644e14610457578063292663d01461047a57600080fd5b80630af03b72116103615780630af03b72146103dd57806319fb2b7c146103fd5780631caaa487146104055780631ec06ecc1461044657600080fd5b80630386a7e0146103885780630701c2fe146103a3578063072ea61c146103b6575b600080fd5b61039061084f565b6040519081526020015b60405180910390f35b6103906103b1366004612577565b610891565b6103907f000000000000000000000000000000000000000000000000000000000000000081565b6103f06103eb3660046125ac565b6108f2565b60405161039a91906125df565b610390610b58565b61042e610413366004612577565b6017602052600090815260409020546001600160a01b031681565b6040516001600160a01b03909116815260200161039a565b610390610c12565b61039060195481565b61046a610465366004612577565b610c9d565b604051901515815260200161039a565b610390600e5481565b610390610491366004612577565b610d74565b61049e610dc5565b005b61039060135481565b600a5461046a9060ff1681565b600354610390565b600f54610390565b61046a6104d4366004612577565b610f12565b6104e1610f9f565b60405161039a9796959493929190612623565b610390600d5481565b610505611156565b60405161039a9190600060e082019050825182526020830151602083015260408301516040830152606083015160608301526080830151608083015260a083015160a083015260c083015160c083015292915050565b61046a610569366004612577565b60146020526000908152604090205460ff1681565b610390600c5481565b6103906105953660046126a4565b6111db565b7f000000000000000000000000000000000000000000000000000000000000000061042e565b61039060105481565b61039060085481565b610390606481565b61049e6112d2565b61042e7f000000000000000000000000000000000000000000000000000000000000000081565b610390610617366004612577565b60156020526000908152604090205481565b61042e7f000000000000000000000000000000000000000000000000000000000000000081565b610390611a01565b600a5460ff1661046a565b61039060125481565b61039060095481565b60115461046a9060ff1681565b61042e610690366004612577565b6000908152601760205260409020546001600160a01b031690565b601954610390565b610390600f5481565b61046a611a35565b61046a611a50565b6103f06106da3660046126a4565b611ab9565b600161046a565b61046a6106f4366004612577565b60009081526014602052604090205460ff1690565b60015460025460035460045460055460065460075461072b9695949392919087565b604080519788526020880196909652948601939093526060850191909152608084015260a083015260c082015260e00161039a565b61049e611ac7565b610390611e48565b61039060185481565b61046a610787366004612577565b611e7f565b610390611f68565b600e54610390565b61042e7f000000000000000000000000000000000000000000000000000000000000000081565b6107cb611f7a565b6040805195151586529315156020860152928401919091526060830152608082015260a00161039a565b610390600b5481565b7f0000000000000000000000000000000000000000000000000000000000000000610390565b61046a610832366004612577565b60166020526000908152604090205460ff1681565b610390611fe9565b60006103e87f000000000000000000000000000000000000000000000000000000000000000060045461088291906126d5565b61088c9190612702565b905090565b60007f00000000000000000000000000000000000000000000000000000000000000006108bd83610c9d565b156108ec576127106108d1826101716126d5565b6108db9190612702565b6108e59082612716565b9392505050565b92915050565b6060600083156109025783610905565b60015b9050600083156109155783610919565b6000195b9050600080835b6008548110801561093057508382105b156109f957604051627eeac760e11b81526000906001600160a01b037f0000000000000000000000000000000000000000000000000000000000000000169062fdd58e90610984908d908690600401612729565b602060405180830381865afa1580156109a1573d6000803e3d6000fd5b505050506040513d601f19601f820116820180604052508101906109c59190612742565b11156109d957826109d58161275b565b9350505b816109e38161275b565b92505080806109f19061275b565b915050610920565b5060008267ffffffffffffffff811115610a1557610a15612774565b604051908082528060200260200182016040528015610a3e578160200160208202803683370190505b5060009250905081855b60085481108015610a5857508584105b8015610a6357508482105b15610b4957604051627eeac760e11b81526000906001600160a01b037f0000000000000000000000000000000000000000000000000000000000000000169062fdd58e90610ab7908f908690600401612729565b602060405180830381865afa158015610ad4573d6000803e3d6000fd5b505050506040513d601f19601f82011682018060405250810190610af89190612742565b1115610b2957808383610b0a8161275b565b945081518110610b1c57610b1c61278a565b6020026020010181815250505b83610b338161275b565b9450508080610b419061275b565b915050610a48565b50909998505050505050505050565b6040516370a0823160e01b815230600482015260009081906001600160a01b037f000000000000000000000000000000000000000000000000000000000000000016906370a0823190602401602060405180830381865afa158015610bc1573d6000803e3d6000fd5b505050506040513d601f19601f82011682018060405250810190610be59190612742565b90506000610bf1611a01565b9050808211610c01576000610c0b565b610c0b8183612716565b9250505090565b6040516370a0823160e01b81523060048201526000907f00000000000000000000000000000000000000000000000000000000000000006001600160a01b0316906370a0823190602401602060405180830381865afa158015610c79573d6000803e3d6000fd5b505050506040513d601f19601f8201168201806040525081019061088c9190612742565b600654600090821015610cb257506000919050565b600554600090600314610cc6576040610cc9565b60095b60ff1690506000600e541115610d3d57600e5460009081526015602052604090205480841115610d3b57600654600090610d0390836127a0565b905080851015610d1857506000949350505050565b6000610d248287612716565b9050610d3084826127b3565b159695505050505050565b505b60065480841015610d52575060009392505050565b6000610d5e8286612716565b9050610d6a83826127b3565b1595945050505050565b6000610d7f82610c9d565b15610dbd57612710610db37f00000000000000000000000000000000000000000000000000000000000000006101716126d5565b6108ec9190612702565b506000919050565b610dcd611ffa565b600a5460ff16610e245760405162461bcd60e51b815260206004820152601860248201527f4e6f2061637469766520454f4c20746f2070726f63657373000000000000000060448201526064015b60405180910390fd5b60115460ff1615610e775760405162461bcd60e51b815260206004820152601f60248201527f454f4c2070726f63657373696e6720616c726561647920636f6d706c657465006044820152606401610e1b565b601054610e82612024565b806010541115610f0557610e9533612410565b7f7041b05f2f5ea7f1f800cd7941e9a4ce99894a9ca151462a083d0560eb8ce374601054600d54601054600d5411610ece576000610ede565b601054600d54610ede9190612716565b600f5460408051948552602085019390935291830152606082015260800160405180910390a15b50610f106001600055565b565b6006546000908190610f25600185612716565b610f2f9190612702565b610f3a9060016127a0565b600654909150600090610f4e600186612716565b610f5891906127b3565b610f639060016127a0565b905080600114610f77575060009392505050565b600654600090610f8790846126d5565b610f929060016127a0565b6008541195945050505050565b60405163c3fddfdd60e01b815233600482015260019060009081908190819060609082908190309063c3fddfdd90602401600060405180830381865afa158015610fed573d6000803e3d6000fd5b505050506040513d6000823e601f3d908101601f1916820160405261101591908101906127c7565b905080519450600095506000965087156110625742935060405180604001604052806012815260200171526561647920746f20656e7465722056502160701b81525092506000915061114c565b61106a611a50565b156110ab5742935060405180604001604052806015815260200174454f4c2063616e206265207472696767657265642160581b81525092506001915061114c565b306001600160a01b031663e48b91fa6040518163ffffffff1660e01b8152600401602060405180830381865afa1580156110e9573d6000803e3d6000fd5b505050506040513d601f19601f8201168201806040525081019061110d9190612742565b93506040518060400160405280601f81526020017f57616974696e6720666f72206e657874206f70706f7274756e6974792e2e2e008152509250600091505b5090919293949596565b6111966040518060e00160405280600081526020016000815260200160008152602001600081526020016000815260200160008152602001600081525090565b506040805160e08101825260015481526002546020820152600354918101919091526004546060820152600554608082015260065460a082015260075460c082015290565b60008060015b6008548110156112cb57604051627eeac760e11b81526000906001600160a01b037f0000000000000000000000000000000000000000000000000000000000000000169062fdd58e9061123a9088908690600401612729565b602060405180830381865afa158015611257573d6000803e3d6000fd5b505050506040513d601f19601f8201168201806040525081019061127b9190612742565b11156112b95761128a81611e7f565b1580156112a6575060008181526014602052604090205460ff16155b156112b957816112b58161275b565b9250505b806112c38161275b565b9150506111e1565b5092915050565b6112da611ffa565b60088054600091826112eb8361275b565b91905055905060006112fc82610891565b9050600061130983610d74565b6040516323b872dd60e01b8152336004820152306024820152604481018490529091507f0000000000000000000000000000000000000000000000000000000000000000906001600160a01b038216906323b872dd906064016020604051808303816000875af1158015611381573d6000803e3d6000fd5b505050506040513d601f19601f820116820180604052508101906113a59190612885565b61140d5760405162461bcd60e51b815260206004820152603360248201527f544f4b454e207472616e73666572206661696c6564202d20706c6561736520616044820152721c1c1c9bdd99481d1bdad95b9cc8199a5c9cdd606a1b6064820152608401610e1b565b6040516340c10f1960e01b81526001600160a01b037f000000000000000000000000000000000000000000000000000000000000000016906340c10f199061145b9033908890600401612729565b600060405180830381600087803b15801561147557600080fd5b505af1158015611489573d6000803e3d6000fd5b505050600085815260176020526040812080546001600160a01b0319163317905560198054600193509091906114c09084906127a0565b909155505060185460009081906114d89060016127a0565b90505b8581101561177d576114ec81611e7f565b8015611507575060008181526014602052604090205460ff16155b1561176b576000818152601760205260409020546001600160a01b031680158015906115c05750604051627eeac760e11b81526000906001600160a01b037f0000000000000000000000000000000000000000000000000000000000000000169062fdd58e9061157d9085908790600401612729565b602060405180830381865afa15801561159a573d6000803e3d6000fd5b505050506040513d601f19601f820116820180604052508101906115be9190612742565b115b156117695760006115cf61084f565b60405163a9059cbb60e01b81529091506001600160a01b0386169063a9059cbb906116009085908590600401612729565b6020604051808303816000875af115801561161f573d6000803e3d6000fd5b505050506040513d601f19601f820116820180604052508101906116439190612885565b1561176757604051632770a7eb60e21b81526001600160a01b037f00000000000000000000000000000000000000000000000000000000000000001690639dc29fac906116969085908790600401612729565b600060405180830381600087803b1580156116b057600080fd5b505af11580156116c4573d6000803e3d6000fd5b505050506116e7836000908152601460205260409020805460ff19166001179055565b6018839055601980546000190190556006546001945060009061170a8686612716565b6117149190612702565b61171f9060016127a0565b9050826001600160a01b0316817f4f2d18324ee95128de091ed2adc501295479000ce4c2cec607aeb1b67e189e2f8460405161175d91815260200190565b60405180910390a3505b505b505b806117758161275b565b9150506114db565b5060008311801561178b5750805b156117c95760185460405184815233907f2b978214144274a9a2576c651ef39e9027c7dcd41b811dac6f4c26c508b153099060200160405180910390a35b6006546000906117da600188612716565b6117e49190612702565b6117ef9060016127a0565b600654909150600090611803600189612716565b61180d91906127b3565b6118189060016127a0565b90507f00000000000000000000000000000000000000000000000000000000000000006001600160a01b031615801590611856575061185687610c9d565b1561197a5760055460009060030361189a576118937f000000000000000000000000000000000000000000000000000000000000000060016126d5565b90506118c8565b6118c57f000000000000000000000000000000000000000000000000000000000000000060036126d5565b90505b60405163a9059cbb60e01b81526001600160a01b0386169063a9059cbb90611916907f0000000000000000000000000000000000000000000000000000000000000000908590600401612729565b6020604051808303816000875af1925050508015611951575060408051601f3d908101601f1916820190925261194e91810190612885565b60015b15611978578015611976576000848152601660205260409020805460ff191660011790555b505b505b6040805182815260208101899052339184917fd759c3ee7768434a6bd039daf120a916dc49b4c2b7e4a2d86dfeba6a06a5e32a910160405180910390a360065481036119ec5760405182907f0eb259affebe5f14bbcc24d3624472ddc23b22985a980512ae55ff08ebe7ed2790600090a25b50504260095550610f10935061251092505050565b6001546000906103e890610882907f00000000000000000000000000000000000000000000000000000000000000006126d5565b600a5460009060ff16801561088c57505060115460ff161590565b6000611a5b336111db565b600003611a685750600090565b600a5460ff1615611a795750600090565b600254600954611a8991906127a0565b4211611a955750600090565b600354600854611aa790600190612716565b1015611ab35750600090565b50600190565b60606108ec826000806108f2565b611acf611ffa565b6000611ada336111db565b11611b3b5760405162461bcd60e51b815260206004820152602b60248201527f4d757374206861766520746f6b656e7320696e206f70656e2056507320746f2060448201526a1d1c9a59d9d95c881153d360aa1b6064820152608401610e1b565b600254600954611b4b91906127a0565b4211611b895760405162461bcd60e51b815260206004820152600d60248201526c454f4c206e6f7420726561647960981b6044820152606401610e1b565b600354600854611b9b90600190612716565b1015611be95760405162461bcd60e51b815260206004820152601a60248201527f4e6f7420656e6f75676820656e747269657320666f7220454f4c0000000000006044820152606401610e1b565b600a5460ff1615611c555760405162461bcd60e51b815260206004820152603060248201527f454f4c20616c726561647920616374697665202d2075736520636f6e74696e7560448201526f65454f4c50726f63657373696e67282960801b6064820152608401610e1b565b6000611c5f610b58565b905060006103e8600160000154611c937f000000000000000000000000000000000000000000000000000000000000000090565b611c9d91906126d5565b611ca79190612702565b905081811115611cb45750805b816000611cbf612517565b600e80549192506000611cd18361275b565b9091555050600a805460ff1916600190811790915542600b55600c839055600d829055600854611d019190612716565b600e5460009081526015602052604081209190915560108190556011805460ff1916905560128490556013556001601a55611d3a612024565b611d4333612410565b7f7041b05f2f5ea7f1f800cd7941e9a4ce99894a9ca151462a083d0560eb8ce374601054600d54601054600d5411611d7c576000611d8c565b601054600d54611d8c9190612716565b600f5460408051948552602085019390935291830152606082015260800160405180910390a1600854600e546040805183815260208101929092527fde2411f4836316ecf99929cb0241a8ea420707cf40f129ecda0fe56860834fba910160405180910390a1600e5460408051428152602081018690529081019190915233907f6d7463a9cc6d62359fce9821e565f0ac8b3eb187e40a070dc6165d643cf88a1a9060600160405180910390a25050505050610f106001600055565b6000806001800154600954611e5d91906127a0565b905080421015611e7657611e714282612716565b611e79565b60005b91505090565b600081600103611e955750506006546008541190565b600080600160040154600314611eac576040611eaf565b60095b60ff1690506000600e541115611f3957600e5460009081526015602052604090205480851115611f37576000611ee58287612716565b905080600103611f0a57600654611efc90836127a0565b600854119695505050505050565b82611f16600183612716565b611f2091906126d5565b600654611f2d90846127a0565b611efc91906127a0565b505b80611f45600186612716565b611f4f91906126d5565b600654611f5c91906127a0565b60085411949350505050565b60025460095460009161088c916127a0565b600a54601154601054600d5460ff938416939092169160008115801590611f9f575083155b15611fde576000611fb08484612716565b600f549091506001611fc282846127a0565b611fcc9190612716565b611fd69190612702565b915050611fe2565b5060005b9091929394565b6000600160085461088c9190612716565b60026000540361201d57604051633ee5aeb560e01b815260040160405180910390fd5b6002600055565b600d5415806120335750600c54155b80612040575060115460ff165b1561206a5760115460ff16610f10576011805460ff19908116600117909155600a80549091169055565b6000600d54600c5461207c9190612702565b90506000601054600d546120909190612716565b9050806000036120b75750506011805460ff19908116600117909155600a80549091169055565b600f548082116120c85750806120e9565b6000600f54836120d89190612716565b905060648110156120e7578291505b505b601a546000905b6008548110801561210057508282105b156123e45761210e81611e7f565b15801561212a575060008181526014602052604090205460ff16155b156123c4576000818152601760205260409020546001600160a01b031680158015906121e35750604051627eeac760e11b81526000906001600160a01b037f0000000000000000000000000000000000000000000000000000000000000000169062fdd58e906121a09085908790600401612729565b602060405180830381865afa1580156121bd573d6000803e3d6000fd5b505050506040513d601f19601f820116820180604052508101906121e19190612742565b115b156123c25760405163a9059cbb60e01b81526001600160a01b037f0000000000000000000000000000000000000000000000000000000000000000169063a9059cbb906122369084908a90600401612729565b6020604051808303816000875af1158015612255573d6000803e3d6000fd5b505050506040513d601f19601f820116820180604052508101906122799190612885565b156123c257604051632770a7eb60e21b81526001600160a01b037f00000000000000000000000000000000000000000000000000000000000000001690639dc29fac906122cc9084908690600401612729565b600060405180830381600087803b1580156122e657600080fd5b505af11580156122fa573d6000803e3d6000fd5b5050505061231d826000908152601460205260409020805460ff19166001179055565b60198054600019019055600654600090612338600185612716565b6123429190612702565b61234d9060016127a0565b60408051898152602081018690529081018290529091506001600160a01b038316907fbd57de7a1d196c5a733080a9c88771995d8b24870b3fd4c0c194c786fa2d4da09060600160405180910390a2836123a68161275b565b6010805491965090915060006123bb8361275b565b9190505550505b505b6123cf8160016127a0565b601a55806123dc8161275b565b9150506120f0565b50600d546010541061240a576011805460ff19908116600117909155600a805490911690555b50505050565b601254158061241f5750600d54155b156124275750565b6000600d5460105460125461243c91906126d5565b6124469190612702565b905060135481111561250c576000601354826124629190612716565b9050806013600082825461247691906127a0565b909155505060405163a9059cbb60e01b81526001600160a01b037f0000000000000000000000000000000000000000000000000000000000000000169063a9059cbb906124c99086908590600401612729565b6020604051808303816000875af11580156124e8573d6000803e3d6000fd5b505050506040513d601f19601f8201168201806040525081019061240a9190612885565b5050565b6001600055565b60008060015b6008548110156125715761253081611e7f565b15801561254c575060008181526014602052604090205460ff16155b1561255f578161255b8161275b565b9250505b806125698161275b565b91505061251d565b50919050565b60006020828403121561258957600080fd5b5035919050565b80356001600160a01b03811681146125a757600080fd5b919050565b6000806000606084860312156125c157600080fd5b6125ca84612590565b95602085013595506040909401359392505050565b6020808252825182820181905260009190848201906040850190845b81811015612617578351835292840192918401916001016125fb565b50909695505050505050565b8715158152600060208815158184015287604084015286606084015285608084015260e060a084015284518060e085015260005b818110156126745786810183015185820161010001528201612657565b506101009150600082828601015281601f19601f830116850101925050508260c083015298975050505050505050565b6000602082840312156126b657600080fd5b6108e582612590565b634e487b7160e01b600052601160045260246000fd5b80820281158282048414176108ec576108ec6126bf565b634e487b7160e01b600052601260045260246000fd5b600082612711576127116126ec565b500490565b818103818111156108ec576108ec6126bf565b6001600160a01b03929092168252602082015260400190565b60006020828403121561275457600080fd5b5051919050565b60006001820161276d5761276d6126bf565b5060010190565b634e487b7160e01b600052604160045260246000fd5b634e487b7160e01b600052603260045260246000fd5b808201808211156108ec576108ec6126bf565b6000826127c2576127c26126ec565b500690565b600060208083850312156127da57600080fd5b825167ffffffffffffffff808211156127f257600080fd5b818501915085601f83011261280657600080fd5b81518181111561281857612818612774565b8060051b604051601f19603f8301168101818110858211171561283d5761283d612774565b60405291825284820192508381018501918883111561285b57600080fd5b938501935b8285101561287957845184529385019392850192612860565b98975050505050505050565b60006020828403121561289757600080fd5b815180151581146108e557600080fdfea2646970667358221220ba45ee1f815f5214a6d2fc1f140cd5698c401e181f3e4402e7ef9debea6444d064736f6c6343000814003360a06040523480156200001157600080fd5b50604051620013e3380380620013e3833981016040819052620000349162000074565b8062000040816200004c565b505033608052620002a4565b60026200005a8282620001d8565b5050565b634e487b7160e01b600052604160045260246000fd5b600060208083850312156200008857600080fd5b82516001600160401b0380821115620000a057600080fd5b818501915085601f830112620000b557600080fd5b815181811115620000ca57620000ca6200005e565b604051601f8201601f19908116603f01168101908382118183101715620000f557620000f56200005e565b8160405282815288868487010111156200010e57600080fd5b600093505b8284101562000132578484018601518185018701529285019262000113565b600086848301015280965050505050505092915050565b600181811c908216806200015e57607f821691505b6020821081036200017f57634e487b7160e01b600052602260045260246000fd5b50919050565b601f821115620001d357600081815260208120601f850160051c81016020861015620001ae5750805b601f850160051c820191505b81811015620001cf57828155600101620001ba565b5050505b505050565b81516001600160401b03811115620001f457620001f46200005e565b6200020c8162000205845462000149565b8462000185565b602080601f8311600181146200024457600084156200022b5750858301515b600019600386901b1c1916600185901b178555620001cf565b600085815260208120601f198616915b82811015620002755788860151825594840194600190910190840162000254565b5085821015620002945787850151600019600388901b60f8161c191681555b5050505050600190811b01905550565b608051611115620002ce600039600081816101ce0152818161037e01526104d801526111156000f3fe608060405234801561001057600080fd5b50600436106100a85760003560e01c80634e1273f4116100715780634e1273f41461013e5780639dc29fac1461015e578063a22cb46514610171578063e985e9c51461017f578063f242432a146101bb578063fbfa77cf146101c957600080fd5b8062fdd58e146100ad57806301ffc9a7146100d35780630e89341c146100f65780632eb2c2d61461011657806340c10f191461012b575b600080fd5b6100c06100bb366004610ab4565b610208565b6040519081526020015b60405180910390f35b6100e66100e1366004610af7565b610230565b60405190151581526020016100ca565b610109610104366004610b1b565b610280565b6040516100ca9190610b7a565b610129610124366004610cd3565b610314565b005b610129610139366004610ab4565b610373565b61015161014c366004610d7d565b6103f8565b6040516100ca9190610e78565b61012961016c366004610ab4565b6104cd565b610129610124366004610e8b565b6100e661018d366004610ec7565b6001600160a01b03918216600090815260016020908152604080832093909416825291909152205460ff1690565b610129610124366004610efa565b6101f07f000000000000000000000000000000000000000000000000000000000000000081565b6040516001600160a01b0390911681526020016100ca565b6000818152602081815260408083206001600160a01b03861684529091529020545b92915050565b60006001600160e01b03198216636cdb3d1360e11b148061026157506001600160e01b031982166303a24d0760e21b145b8061022a57506301ffc9a760e01b6001600160e01b031983161461022a565b60606002805461028f90610f5f565b80601f01602080910402602001604051908101604052809291908181526020018280546102bb90610f5f565b80156103085780601f106102dd57610100808354040283529160200191610308565b820191906000526020600020905b8154815290600101906020018083116102eb57829003601f168201915b50505050509050919050565b60405162461bcd60e51b815260206004820152602960248201527f454e5452595f5265636569707420746f6b656e7320617265206e6f6e2d7472616044820152686e7366657261626c6560b81b60648201526084015b60405180910390fd5b336001600160a01b037f000000000000000000000000000000000000000000000000000000000000000016146103d85760405162461bcd60e51b815260206004820152600a60248201526913db9b1e481d985d5b1d60b21b604482015260640161036a565b6103f4828260016040518060200160405280600081525061053e565b5050565b606081518351146104295781518351604051635b05999160e01b81526004810192909252602482015260440161036a565b6000835167ffffffffffffffff81111561044557610445610b8d565b60405190808252806020026020018201604052801561046e578160200160208202803683370190505b50905060005b84518110156104c55760208082028601015161049890602080840287010151610208565b8282815181106104aa576104aa610f99565b60209081029190910101526104be81610fc5565b9050610474565b509392505050565b336001600160a01b037f000000000000000000000000000000000000000000000000000000000000000016146105325760405162461bcd60e51b815260206004820152600a60248201526913db9b1e481d985d5b1d60b21b604482015260640161036a565b6103f4828260016105a3565b6001600160a01b03841661056857604051632bfa23e760e11b81526000600482015260240161036a565b6040805160018082526020820186905281830190815260608201859052608082019092529061059b600087848487610612565b505050505050565b6001600160a01b0383166105cc57604051626a0d4560e21b81526000600482015260240161036a565b604080516001808252602082018590528183019081526060820184905260a0820190925260006080820181815291929161060b91879185908590610612565b5050505050565b61061e85858585610665565b6001600160a01b0384161561060b57825133906001036106575760208481015190840151610650838989858589610882565b505061059b565b61059b8187878787876109af565b80518251146106945781518151604051635b05999160e01b81526004810192909252602482015260440161036a565b3360005b83518110156107a3576020818102858101820151908501909101516001600160a01b0388161561074b576000828152602081815260408083206001600160a01b038c16845290915290205481811015610724576040516303dee4c560e01b81526001600160a01b038a16600482015260248101829052604481018390526064810184905260840161036a565b6000838152602081815260408083206001600160a01b038d16845290915290209082900390555b6001600160a01b03871615610790576000828152602081815260408083206001600160a01b038b1684529091528120805483929061078a908490610fde565b90915550505b50508061079c90610fc5565b9050610698565b5082516001036108245760208301516000906020840151909150856001600160a01b0316876001600160a01b0316846001600160a01b03167fc3d58168c5ae7397731d063d5bbf3d657854427343f4c083240f7aacaa2d0f628585604051610815929190918252602082015260400190565b60405180910390a4505061060b565b836001600160a01b0316856001600160a01b0316826001600160a01b03167f4a39dc06d4c0dbc64b70af90fd698a233a518aa5d07e595d983b8c0526c8f7fb8686604051610873929190610ff1565b60405180910390a45050505050565b6001600160a01b0384163b1561059b5760405163f23a6e6160e01b81526001600160a01b0385169063f23a6e61906108c6908990899088908890889060040161101f565b6020604051808303816000875af1925050508015610901575060408051601f3d908101601f191682019092526108fe91810190611064565b60015b61096a573d80801561092f576040519150601f19603f3d011682016040523d82523d6000602084013e610934565b606091505b50805160000361096257604051632bfa23e760e11b81526001600160a01b038616600482015260240161036a565b805181602001fd5b6001600160e01b0319811663f23a6e6160e01b146109a657604051632bfa23e760e11b81526001600160a01b038616600482015260240161036a565b50505050505050565b6001600160a01b0384163b1561059b5760405163bc197c8160e01b81526001600160a01b0385169063bc197c81906109f39089908990889088908890600401611081565b6020604051808303816000875af1925050508015610a2e575060408051601f3d908101601f19168201909252610a2b91810190611064565b60015b610a5c573d80801561092f576040519150601f19603f3d011682016040523d82523d6000602084013e610934565b6001600160e01b0319811663bc197c8160e01b146109a657604051632bfa23e760e11b81526001600160a01b038616600482015260240161036a565b80356001600160a01b0381168114610aaf57600080fd5b919050565b60008060408385031215610ac757600080fd5b610ad083610a98565b946020939093013593505050565b6001600160e01b031981168114610af457600080fd5b50565b600060208284031215610b0957600080fd5b8135610b1481610ade565b9392505050565b600060208284031215610b2d57600080fd5b5035919050565b6000815180845260005b81811015610b5a57602081850181015186830182015201610b3e565b506000602082860101526020601f19601f83011685010191505092915050565b602081526000610b146020830184610b34565b634e487b7160e01b600052604160045260246000fd5b604051601f8201601f1916810167ffffffffffffffff81118282101715610bcc57610bcc610b8d565b604052919050565b600067ffffffffffffffff821115610bee57610bee610b8d565b5060051b60200190565b600082601f830112610c0957600080fd5b81356020610c1e610c1983610bd4565b610ba3565b82815260059290921b84018101918181019086841115610c3d57600080fd5b8286015b84811015610c585780358352918301918301610c41565b509695505050505050565b600082601f830112610c7457600080fd5b813567ffffffffffffffff811115610c8e57610c8e610b8d565b610ca1601f8201601f1916602001610ba3565b818152846020838601011115610cb657600080fd5b816020850160208301376000918101602001919091529392505050565b600080600080600060a08688031215610ceb57600080fd5b610cf486610a98565b9450610d0260208701610a98565b9350604086013567ffffffffffffffff80821115610d1f57600080fd5b610d2b89838a01610bf8565b94506060880135915080821115610d4157600080fd5b610d4d89838a01610bf8565b93506080880135915080821115610d6357600080fd5b50610d7088828901610c63565b9150509295509295909350565b60008060408385031215610d9057600080fd5b823567ffffffffffffffff80821115610da857600080fd5b818501915085601f830112610dbc57600080fd5b81356020610dcc610c1983610bd4565b82815260059290921b84018101918181019089841115610deb57600080fd5b948201945b83861015610e1057610e0186610a98565b82529482019490820190610df0565b96505086013592505080821115610e2657600080fd5b50610e3385828601610bf8565b9150509250929050565b600081518084526020808501945080840160005b83811015610e6d57815187529582019590820190600101610e51565b509495945050505050565b602081526000610b146020830184610e3d565b60008060408385031215610e9e57600080fd5b610ea783610a98565b915060208301358015158114610ebc57600080fd5b809150509250929050565b60008060408385031215610eda57600080fd5b610ee383610a98565b9150610ef160208401610a98565b90509250929050565b600080600080600060a08688031215610f1257600080fd5b610f1b86610a98565b9450610f2960208701610a98565b93506040860135925060608601359150608086013567ffffffffffffffff811115610f5357600080fd5b610d7088828901610c63565b600181811c90821680610f7357607f821691505b602082108103610f9357634e487b7160e01b600052602260045260246000fd5b50919050565b634e487b7160e01b600052603260045260246000fd5b634e487b7160e01b600052601160045260246000fd5b600060018201610fd757610fd7610faf565b5060010190565b8082018082111561022a5761022a610faf565b6040815260006110046040830185610e3d565b82810360208401526110168185610e3d565b95945050505050565b6001600160a01b03868116825285166020820152604081018490526060810183905260a06080820181905260009061105990830184610b34565b979650505050505050565b60006020828403121561107657600080fd5b8151610b1481610ade565b6001600160a01b0386811682528516602082015260a0604082018190526000906110ad90830186610e3d565b82810360608401526110bf8186610e3d565b905082810360808401526110d38185610b34565b9897505050505050505056fea2646970667358221220110ecfa9173daa30de31885b44eec80de4e0344b975f74ffa6c378993668b3b564736f6c63430008140033"
}